{
    "contractName": "BetContractFactory",
    "abi": [
        {
            "inputs": [],
            "stateMutability": "nonpayable",
            "type": "constructor"
        },
        {
            "anonymous": false,
            "inputs": [
                {
                    "indexed": false,
                    "internalType": "address",
                    "name": "creator",
                    "type": "address"
                }
            ],
            "name": "NewContract",
            "type": "event"
        },
        {
            "anonymous": false,
            "inputs": [
                {
                    "indexed": false,
                    "internalType": "address",
                    "name": "recipient",
                    "type": "address"
                }
            ],
            "name": "PayoutWinnings",
            "type": "event"
        },
        {
            "inputs": [
                {
                    "internalType": "address",
                    "name": "",
                    "type": "address"
                }
            ],
            "name": "addressExists",
            "outputs": [
                {
                    "internalType": "bool",
                    "name": "",
                    "type": "bool"
                }
            ],
            "stateMutability": "view",
            "type": "function"
        },
        {
            "inputs": [
                {
                    "internalType": "address",
                    "name": "",
                    "type": "address"
                },
                {
                    "internalType": "uint256",
                    "name": "",
                    "type": "uint256"
                }
            ],
            "name": "addressToContracts",
            "outputs": [
                {
                    "internalType": "contract BetContract",
                    "name": "",
                    "type": "address"
                }
            ],
            "stateMutability": "view",
            "type": "function"
        },
        {
            "inputs": [
                {
                    "internalType": "address",
                    "name": "",
                    "type": "address"
                }
            ],
            "name": "addressToPayout",
            "outputs": [
                {
                    "internalType": "uint256",
                    "name": "",
                    "type": "uint256"
                }
            ],
            "stateMutability": "view",
            "type": "function"
        },
        {
            "inputs": [
                {
                    "internalType": "address",
                    "name": "bettor",
                    "type": "address"
                },
                {
                    "internalType": "uint256[]",
                    "name": "correctPrices",
                    "type": "uint256[]"
                }
            ],
            "name": "calculatePayout",
            "outputs": [],
            "stateMutability": "nonpayable",
            "type": "function"
        },
        {
            "inputs": [
                {
                    "internalType": "uint256",
                    "name": "targetGuess",
                    "type": "uint256"
                },
                {
                    "internalType": "uint256",
                    "name": "marginOfError",
                    "type": "uint256"
                },
                {
                    "internalType": "uint256",
                    "name": "numDays",
                    "type": "uint256"
                },
                {
                    "internalType": "uint256",
                    "name": "startTimestamp",
                    "type": "uint256"
                }
            ],
            "name": "createBetContract",
            "outputs": [],
            "stateMutability": "payable",
            "type": "function"
        },
        {
            "inputs": [
                {
                    "internalType": "address",
                    "name": "bettor",
                    "type": "address"
                }
            ],
            "name": "fetchBetContracts",
            "outputs": [
                {
                    "internalType": "contract BetContract[]",
                    "name": "",
                    "type": "address[]"
                }
            ],
            "stateMutability": "view",
            "type": "function"
        },
        {
            "inputs": [],
            "name": "fundBalance",
            "outputs": [],
            "stateMutability": "payable",
            "type": "function"
        },
        {
            "inputs": [
                {
                    "internalType": "address",
                    "name": "recipient",
                    "type": "address"
                }
            ],
            "name": "payoutWinnings",
            "outputs": [],
            "stateMutability": "nonpayable",
            "type": "function"
        }
    ],
    "bytecode": "608060405234801561001057600080fd5b50600080546001600160a01b03191633179055611341806100326000396000f3fe608060405260043610620000855760003560e01c80636ec73b0f11620000545780636ec73b0f1462000133578063a5025222146200014a578063d29fb834146200018f578063dcedbdaa14620001c357600080fd5b80632290757a146200008a5780633c06794514620000af5780633e1e5b0a14620000b157806342ff1b2914620000f5575b600080fd5b3480156200009757600080fd5b50620000af620000a936600462000bb2565b620001e8565b005b348015620000be57600080fd5b50620000e2620000d036600462000b8e565b60036020526000908152604090205481565b6040519081526020015b60405180910390f35b3480156200010257600080fd5b506200011a6200011436600462000c93565b62000544565b6040516001600160a01b039091168152602001620000ec565b620000af6200014436600462000cfa565b6200057d565b3480156200015757600080fd5b506200017e6200016936600462000b8e565b60026020526000908152604090205460ff1681565b6040519015158152602001620000ec565b3480156200019c57600080fd5b50620001b4620001ae36600462000b8e565b62000894565b604051620000ec919062000d2c565b348015620001d057600080fd5b50620000af620001e236600462000b8e565b6200090c565b6000546001600160a01b031633146200020057600080fd5b6001600160a01b0382166000908152600160205260408120905b81548110156200053e5760008282815481106200024757634e487b7160e01b600052603260045260246000fd5b6000918252602080832090910154604080516337de5b5160e11b815290516001600160a01b0390921694508492636fbcb6a292600480840193829003018186803b1580156200029557600080fd5b505afa158015620002aa573d6000803e3d6000fd5b505050506040513d601f19601f82011682018060405250810190620002d0919062000ce1565b11620003345760405162461bcd60e51b815260206004820152602860248201527f506f74656e7469616c20726577617264206d75737420626520677265617465726044820152670207468616e2024360c41b60648201526084015b60405180910390fd5b6000429050816001600160a01b0316639a6fb4258685815181106200036957634e487b7160e01b600052603260045260246000fd5b6020026020010151836040518363ffffffff1660e01b815260040162000399929190918252602082015260400190565b60206040518083038186803b158015620003b257600080fd5b505afa158015620003c7573d6000803e3d6000fd5b505050506040513d601f19601f82011682018060405250810190620003ed919062000cbf565b1515600114156200049d57816001600160a01b0316636fbcb6a26040518163ffffffff1660e01b815260040160206040518083038186803b1580156200043257600080fd5b505afa15801562000447573d6000803e3d6000fd5b505050506040513d601f19601f820116820180604052508101906200046d919062000ce1565b6001600160a01b038716600090815260036020526040812080549091906200049790849062000d7b565b90915550505b816001600160a01b031663a85adeab6040518163ffffffff1660e01b815260040160206040518083038186803b158015620004d757600080fd5b505afa158015620004ec573d6000803e3d6000fd5b505050506040513d601f19601f8201168201806040525081019062000512919062000ce1565b8111156200052657620005268385620009b8565b50508080620005359062000dd1565b9150506200021a565b50505050565b600160205281600052604060002081815481106200056157600080fd5b6000918252602090912001546001600160a01b03169150829050565b60003411620005e65760405162461bcd60e51b815260206004820152602e60248201527f4e65656420746f20636f6e7472696275746520657468657220696e206f72646560448201526d1c881d1bc81c1b1858d94818995d60921b60648201526084016200032b565b620005f360054762000d96565b34106200065b5760405162461bcd60e51b815260206004820152602f60248201527f43616e277420626574206d6f7265207468616e20323025206f6620746865207660448201526e185b1d59481bd9881d1a19481c1bdd608a1b60648201526084016200032b565b6001821015620006ca5760405162461bcd60e51b815260206004820152603360248201527f426574206e6565647320746f20626520706c61636564206174206c6561737420604482015272312064617920696e207468652066757475726560681b60648201526084016200032b565b60328311156200072b5760405162461bcd60e51b815260206004820152602560248201527f4d617267696e206f66206572726f72206d757374206265206c6573732074686160448201526406e202435360dc1b60648201526084016200032b565b60003360008054906101000a90046001600160a01b03163487878787604051620007559062000ae2565b6001600160a01b03978816815296909516602087015260408601939093526060850191909152608084015260a083015260c082015260e001604051809103906000f080158015620007aa573d6000803e3d6000fd5b503360009081526002602052604090205490915060ff16151560011415620008095733600090815260016020818152604083208054928301815583529091200180546001600160a01b0319166001600160a01b0383161790556200085a565b60408051602080820183526001600160a01b0384168252336000908152600191829052929092206200083e9290919062000af0565b50336000908152600260205260409020805460ff191660011790555b6040513381527f387ea218537e939551af33bbc2dd6c53b1fee55d377a0dce288258f972cb3a9c9060200160405180910390a15050505050565b6001600160a01b0381166000908152600160209081526040918290208054835181840281018401909452808452606093928301828280156200090057602002820191906000526020600020905b81546001600160a01b03168152600190910190602001808311620008e1575b50505050509050919050565b6000546001600160a01b031633146200092457600080fd5b6001600160a01b03811660008181526003602052604080822054905181156108fc0292818181858888f1935050505015801562000965573d6000803e3d6000fd5b506001600160a01b03811660008181526003602090815260408083209290925590519182527ff3a3df5c689ad8a14d0800ea098ea46d0443cc799837e53a9c0c9a68ab07f3a4910160405180910390a150565b80548210620009ff5760405162461bcd60e51b8152602060048201526012602482015271496e646578206f7574206f662072616e676560701b60448201526064016200032b565b8054819062000a119060019062000db7565b8154811062000a3057634e487b7160e01b600052603260045260246000fd5b9060005260206000200160009054906101000a90046001600160a01b031681838154811062000a6f57634e487b7160e01b600052603260045260246000fd5b9060005260206000200160006101000a8154816001600160a01b0302191690836001600160a01b031602179055508080548062000abc57634e487b7160e01b600052603160045260246000fd5b600082815260209020810160001990810180546001600160a01b03191690550190555050565b6104f08062000e1c83390190565b82805482825590600052602060002090810192821562000b48579160200282015b8281111562000b4857825182546001600160a01b0319166001600160a01b0390911617825560209092019160019091019062000b11565b5062000b5692915062000b5a565b5090565b5b8082111562000b56576000815560010162000b5b565b80356001600160a01b038116811462000b8957600080fd5b919050565b60006020828403121562000ba0578081fd5b62000bab8262000b71565b9392505050565b6000806040838503121562000bc5578081fd5b62000bd08362000b71565b915060208084013567ffffffffffffffff8082111562000bee578384fd5b818601915086601f83011262000c02578384fd5b81358181111562000c175762000c1762000e05565b8060051b604051601f19603f8301168101818110858211171562000c3f5762000c3f62000e05565b604052828152858101935084860182860187018b101562000c5e578788fd5b8795505b8386101562000c8257803585526001959095019493860193860162000c62565b508096505050505050509250929050565b6000806040838503121562000ca6578182fd5b62000cb18362000b71565b946020939093013593505050565b60006020828403121562000cd1578081fd5b8151801515811462000bab578182fd5b60006020828403121562000cf3578081fd5b5051919050565b6000806000806080858703121562000d10578182fd5b5050823594602084013594506040840135936060013592509050565b6020808252825182820181905260009190848201906040850190845b8181101562000d6f5783516001600160a01b03168352928401929184019160010162000d48565b50909695505050505050565b6000821982111562000d915762000d9162000def565b500190565b60008262000db257634e487b7160e01b81526012600452602481fd5b500490565b60008282101562000dcc5762000dcc62000def565b500390565b600060001982141562000de85762000de862000def565b5060010190565b634e487b7160e01b600052601160045260246000fd5b634e487b7160e01b600052604160045260246000fdfe608060405234801561001057600080fd5b506040516104f03803806104f083398101604081905261002f916100f9565b600080546001600160a01b03199081166001600160a01b038a811691909117909255600180549091169188169190911790556002859055600384905560048390556005829055600781905560068590556100ae61009b836305265c006100be602090811b61024817901c565b826100d160201b61025b1790919060201c565b600855506101a795505050505050565b60006100ca8284610172565b9392505050565b60006100ca828461015a565b80516001600160a01b03811681146100f457600080fd5b919050565b600080600080600080600060e0888a031215610113578283fd5b61011c886100dd565b965061012a602089016100dd565b604089015160608a015160808b015160a08c015160c0909c01519a9d939c50919a90999198509650945092505050565b6000821982111561016d5761016d610191565b500190565b600081600019048311821515161561018c5761018c610191565b500290565b634e487b7160e01b600052601160045260246000fd5b61033a806101b66000396000f3fe608060405234801561001057600080fd5b50600436106100a95760003560e01c80639a6fb425116100715780639a6fb4251461011c578063a85adeab1461013f578063afe9d22f14610148578063d24257c01461015b578063dd8e494b14610164578063e6fd48bc1461016d57600080fd5b8063207872ae146100ae57806337688dc1146100c3578063481c6a75146100df57806363cf070c1461010a5780636fbcb6a214610113575b600080fd5b6100c16100bc366004610267565b610176565b005b6100cc60045481565b6040519081526020015b60405180910390f35b6001546100f2906001600160a01b031681565b6040516001600160a01b0390911681526020016100d6565b6100cc60055481565b6100cc60065481565b61012f61012a36600461027f565b6101e5565b60405190151581526020016100d6565b6100cc60085481565b6000546100f2906001600160a01b031681565b6100cc60025481565b6100cc60035481565b6100cc60075481565b6001546001600160a01b031633146101e05760405162461bcd60e51b815260206004820152602360248201527f4f6e6c79206d616e616765722063616e2063616c6c20746869732066756e637460448201526234b7b760e91b606482015260840160405180910390fd5b600655565b6000806004546003546101f891906102d7565b9050600060045460035461020c91906102a0565b905080851115801561021e5750818510155b801561022b575060085484115b1561023b57600192505050610242565b6000925050505b92915050565b600061025482846102b8565b9392505050565b600061025482846102a0565b600060208284031215610278578081fd5b5035919050565b60008060408385031215610291578081fd5b50508035926020909101359150565b600082198211156102b3576102b36102ee565b500190565b60008160001904831182151516156102d2576102d26102ee565b500290565b6000828210156102e9576102e96102ee565b500390565b634e487b7160e01b600052601160045260246000fdfea2646970667358221220e1b12808efcced0e7d377aec07db79339940667094a0f62a3ecf344a3606b6c464736f6c63430008040033a2646970667358221220c42778f5c93daf88c472d0d8b37043d188576203f6a7b38d835b1ce7f078ea1864736f6c63430008040033",
    "sourcePath": "/Users/dhutchings/Documents/GitHub/Ethereum-Price-Betting/ethereum/contracts/BetContract.sol",
    "compiler": {
        "name": "solc",
        "version": "0.8.4+commit.c7e474f2"
    },
    "functionHashes": {
        "addressExists(address)": "a5025222",
        "addressToContracts(address,uint256)": "42ff1b29",
        "addressToPayout(address)": "3e1e5b0a",
        "calculatePayout(address,uint256[])": "2290757a",
        "createBetContract(uint256,uint256,uint256,uint256)": "6ec73b0f",
        "fetchBetContracts(address)": "d29fb834",
        "fundBalance()": "3c067945",
        "payoutWinnings(address)": "dcedbdaa"
    },
    "gasEstimates": {
        "creation": {
            "codeDepositCost": "985800",
            "executionCost": "21862",
            "totalCost": "1007662"
        },
        "external": {
            "addressExists(address)": "1253",
            "addressToContracts(address,uint256)": "2251",
            "addressToPayout(address)": "1253",
            "calculatePayout(address,uint256[])": "infinite",
            "createBetContract(uint256,uint256,uint256,uint256)": "infinite",
            "fetchBetContracts(address)": "infinite",
            "fundBalance()": "119",
            "payoutWinnings(address)": "infinite"
        },
        "internal": {
            "removeContract(uint256,contract BetContract[] storage pointer)": "infinite"
        }
    }
}