{
    "contractName": "BetContractFactory",
    "abi": [
        {
            "inputs": [],
            "stateMutability": "nonpayable",
            "type": "constructor"
        },
        {
            "anonymous": false,
            "inputs": [
                {
                    "indexed": false,
                    "internalType": "address",
                    "name": "creator",
                    "type": "address"
                }
            ],
            "name": "NewBet",
            "type": "event"
        },
        {
            "anonymous": false,
            "inputs": [
                {
                    "indexed": false,
                    "internalType": "address",
                    "name": "recipient",
                    "type": "address"
                }
            ],
            "name": "PayoutWinnings",
            "type": "event"
        },
        {
            "inputs": [
                {
                    "internalType": "address",
                    "name": "",
                    "type": "address"
                }
            ],
            "name": "addressExists",
            "outputs": [
                {
                    "internalType": "bool",
                    "name": "",
                    "type": "bool"
                }
            ],
            "stateMutability": "view",
            "type": "function"
        },
        {
            "inputs": [
                {
                    "internalType": "address",
                    "name": "",
                    "type": "address"
                },
                {
                    "internalType": "uint256",
                    "name": "",
                    "type": "uint256"
                }
            ],
            "name": "addressToContracts",
            "outputs": [
                {
                    "internalType": "contract BetContract",
                    "name": "",
                    "type": "address"
                }
            ],
            "stateMutability": "view",
            "type": "function"
        },
        {
            "inputs": [
                {
                    "internalType": "address",
                    "name": "",
                    "type": "address"
                }
            ],
            "name": "addressToPayout",
            "outputs": [
                {
                    "internalType": "uint256",
                    "name": "",
                    "type": "uint256"
                }
            ],
            "stateMutability": "view",
            "type": "function"
        },
        {
            "inputs": [
                {
                    "internalType": "address",
                    "name": "bettor",
                    "type": "address"
                },
                {
                    "internalType": "uint256[]",
                    "name": "correctPrices",
                    "type": "uint256[]"
                }
            ],
            "name": "calculatePayout",
            "outputs": [],
            "stateMutability": "nonpayable",
            "type": "function"
        },
        {
            "inputs": [
                {
                    "internalType": "uint256",
                    "name": "targetGuess",
                    "type": "uint256"
                },
                {
                    "internalType": "uint256",
                    "name": "marginOfError",
                    "type": "uint256"
                },
                {
                    "internalType": "uint256",
                    "name": "numDays",
                    "type": "uint256"
                },
                {
                    "internalType": "uint256",
                    "name": "startTimestamp",
                    "type": "uint256"
                }
            ],
            "name": "createBetContract",
            "outputs": [],
            "stateMutability": "payable",
            "type": "function"
        },
        {
            "inputs": [
                {
                    "internalType": "address",
                    "name": "bettor",
                    "type": "address"
                }
            ],
            "name": "fetchContracts",
            "outputs": [
                {
                    "internalType": "contract BetContract[]",
                    "name": "",
                    "type": "address[]"
                }
            ],
            "stateMutability": "view",
            "type": "function"
        },
        {
            "inputs": [],
            "name": "fundBalance",
            "outputs": [],
            "stateMutability": "payable",
            "type": "function"
        },
        {
            "inputs": [
                {
                    "internalType": "address",
                    "name": "recipient",
                    "type": "address"
                }
            ],
            "name": "payoutWinnings",
            "outputs": [],
            "stateMutability": "nonpayable",
            "type": "function"
        }
    ],
    "bytecode": "608060405234801561001057600080fd5b50600080546001600160a01b0319163317905561136d806100326000396000f3fe60806040526004361061007b5760003560e01c80636ec73b0f1161004e5780636ec73b0f1461011a578063a50252221461012d578063bc70cea11461016d578063dcedbdaa1461019a57600080fd5b80632290757a146100805780633c067945146100a05780633e1e5b0a146100a257806342ff1b29146100e2575b600080fd5b34801561008c57600080fd5b506100a061009b366004610c79565b6101ba565b005b3480156100ae57600080fd5b506100cf6100bd366004610c5f565b60036020526000908152604090205481565b6040519081526020015b60405180910390f35b3480156100ee57600080fd5b506101026100fd366004610d4c565b6105ba565b6040516001600160a01b0390911681526020016100d9565b6100a0610128366004610dad565b6105f2565b34801561013957600080fd5b5061015d610148366004610c5f565b60026020526000908152604090205460ff1681565b60405190151581526020016100d9565b34801561017957600080fd5b5061018d610188366004610c5f565b61091c565b6040516100d99190610dde565b3480156101a657600080fd5b506100a06101b5366004610c5f565b6109d0565b6000546001600160a01b031633146101d157600080fd5b6001600160a01b03821660009081526002602052604090205460ff1615156001146102175760405162461bcd60e51b815260040161020e90610e2b565b60405180910390fd5b6001600160a01b038216600090815260016020526040902080548251146102b05760405162461bcd60e51b815260206004820152604160248201527f4172726179206f6620636f727265637420707269636573206d7573742062652060448201527f73616d65206c656e677468206173206172726179206f6620636f6e74726163746064820152607360f81b608482015260a40161020e565b60005b81548110156105b45760008282815481106102de57634e487b7160e01b600052603260045260246000fd5b6000918252602080832090910154604080516337de5b5160e11b815290516001600160a01b0390921694508492636fbcb6a292600480840193829003018186803b15801561032b57600080fd5b505afa15801561033f573d6000803e3d6000fd5b505050506040513d601f19601f820116820180604052508101906103639190610d95565b116103c15760405162461bcd60e51b815260206004820152602860248201527f506f74656e7469616c20726577617264206d75737420626520677265617465726044820152670207468616e2024360c41b606482015260840161020e565b6000429050816001600160a01b0316639a6fb4258685815181106103f557634e487b7160e01b600052603260045260246000fd5b6020026020010151836040518363ffffffff1660e01b8152600401610424929190918252602082015260400190565b60206040518083038186803b15801561043c57600080fd5b505afa158015610450573d6000803e3d6000fd5b505050506040513d601f19601f820116820180604052508101906104749190610d75565b15156001141561051d57816001600160a01b0316636fbcb6a26040518163ffffffff1660e01b815260040160206040518083038186803b1580156104b757600080fd5b505afa1580156104cb573d6000803e3d6000fd5b505050506040513d601f19601f820116820180604052508101906104ef9190610d95565b6001600160a01b03871660009081526003602052604081208054909190610517908490610e6f565b90915550505b816001600160a01b031663a85adeab6040518163ffffffff1660e01b815260040160206040518083038186803b15801561055657600080fd5b505afa15801561056a573d6000803e3d6000fd5b505050506040513d601f19601f8201168201806040525081019061058e9190610d95565b81111561059f5761059f8385610a7a565b505080806105ac90610edd565b9150506102b3565b50505050565b600160205281600052604060002081815481106105d657600080fd5b6000918252602090912001546001600160a01b03169150829050565b600034116106595760405162461bcd60e51b815260206004820152602e60248201527f4e65656420746f20636f6e7472696275746520657468657220696e206f72646560448201526d1c881d1bc81c1b1858d94818995d60921b606482015260840161020e565b610664600547610e87565b34106106ca5760405162461bcd60e51b815260206004820152602f60248201527f43616e277420626574206d6f7265207468616e20323025206f6620746865207660448201526e185b1d59481bd9881d1a19481c1bdd608a1b606482015260840161020e565b60018210156107375760405162461bcd60e51b815260206004820152603360248201527f426574206e6565647320746f20626520706c61636564206174206c6561737420604482015272312064617920696e207468652066757475726560681b606482015260840161020e565b60328311156107965760405162461bcd60e51b815260206004820152602560248201527f4d617267696e206f66206572726f72206d757374206265206c6573732074686160448201526406e202435360dc1b606482015260840161020e565b60006107b06107a9846305265c00610b9d565b8390610bb0565b905060003360008054906101000a90046001600160a01b03163488888888886040516107db90610bbc565b6001600160a01b03988916815297909616602088015260408701949094526060860192909252608085015260a084015260c083015260e082015261010001604051809103906000f080158015610835573d6000803e3d6000fd5b503360009081526002602052604090205490915060ff161515600114156108925733600090815260016020818152604083208054928301815583529091200180546001600160a01b0319166001600160a01b0383161790556108e1565b60408051602080820183526001600160a01b0384168252336000908152600191829052929092206108c592909190610bc9565b50336000908152600260205260409020805460ff191660011790555b6040513381527f3d2f285f15e9ffb7fa2fd5ffb3917699d80b17119e80cc0f46d6de9c2c79b03e9060200160405180910390a1505050505050565b6001600160a01b03811660009081526002602052604090205460609060ff16151560011461095c5760405162461bcd60e51b815260040161020e90610e2b565b6001600160a01b038216600090815260016020908152604091829020805483518184028101840190945280845290918301828280156109c457602002820191906000526020600020905b81546001600160a01b031681526001909101906020018083116109a6575b50505050509050919050565b6000546001600160a01b031633146109e757600080fd5b6001600160a01b03811660008181526003602052604080822054905181156108fc0292818181858888f19350505050158015610a27573d6000803e3d6000fd5b506001600160a01b03811660008181526003602090815260408083209290925590519182527ff3a3df5c689ad8a14d0800ea098ea46d0443cc799837e53a9c0c9a68ab07f3a4910160405180910390a150565b80548210610abf5760405162461bcd60e51b8152602060048201526012602482015271496e646578206f7574206f662072616e676560701b604482015260640161020e565b80548190610acf90600190610ec6565b81548110610aed57634e487b7160e01b600052603260045260246000fd5b9060005260206000200160009054906101000a90046001600160a01b0316818381548110610b2b57634e487b7160e01b600052603260045260246000fd5b9060005260206000200160006101000a8154816001600160a01b0302191690836001600160a01b0316021790555080805480610b7757634e487b7160e01b600052603160045260246000fd5b600082815260209020810160001990810180546001600160a01b03191690550190555050565b6000610ba98284610ea7565b9392505050565b6000610ba98284610e6f565b61041380610f2583390190565b828054828255906000526020600020908101928215610c1e579160200282015b82811115610c1e57825182546001600160a01b0319166001600160a01b03909116178255602090920191600190910190610be9565b50610c2a929150610c2e565b5090565b5b80821115610c2a5760008155600101610c2f565b80356001600160a01b0381168114610c5a57600080fd5b919050565b600060208284031215610c70578081fd5b610ba982610c43565b60008060408385031215610c8b578081fd5b610c9483610c43565b915060208084013567ffffffffffffffff80821115610cb1578384fd5b818601915086601f830112610cc4578384fd5b813581811115610cd657610cd6610f0e565b8060051b604051601f19603f83011681018181108582111715610cfb57610cfb610f0e565b604052828152858101935084860182860187018b1015610d19578788fd5b8795505b83861015610d3b578035855260019590950194938601938601610d1d565b508096505050505050509250929050565b60008060408385031215610d5e578182fd5b610d6783610c43565b946020939093013593505050565b600060208284031215610d86578081fd5b81518015158114610ba9578182fd5b600060208284031215610da6578081fd5b5051919050565b60008060008060808587031215610dc2578182fd5b5050823594602084013594506040840135936060013592509050565b6020808252825182820181905260009190848201906040850190845b81811015610e1f5783516001600160a01b031683529284019291840191600101610dfa565b50909695505050505050565b60208082526024908201527f426574746f72206d7573742068617665206174206c65617374203120636f6e746040820152631c9858dd60e21b606082015260800190565b60008219821115610e8257610e82610ef8565b500190565b600082610ea257634e487b7160e01b81526012600452602481fd5b500490565b6000816000190483118215151615610ec157610ec1610ef8565b500290565b600082821015610ed857610ed8610ef8565b500390565b6000600019821415610ef157610ef1610ef8565b5060010190565b634e487b7160e01b600052601160045260246000fd5b634e487b7160e01b600052604160045260246000fdfe608060405234801561001057600080fd5b5060405161041338038061041383398101604081905261002f9161009d565b600080546001600160a01b03998a166001600160a01b03199182161790915560018054989099169716969096179096556002849055600392909255600455600555600792909255600855600655610108565b80516001600160a01b038116811461009857600080fd5b919050565b600080600080600080600080610100898b0312156100b9578384fd5b6100c289610081565b97506100d060208a01610081565b60408a015160608b015160808c015160a08d015160c08e015160e0909e01519c9f949e50929c919b909a509198509650945092505050565b6102fc806101176000396000f3fe608060405234801561001057600080fd5b50600436106100a95760003560e01c80639a6fb425116100715780639a6fb4251461011c578063a85adeab1461013f578063afe9d22f14610148578063d24257c01461015b578063dd8e494b14610164578063e6fd48bc1461016d57600080fd5b8063207872ae146100ae57806337688dc1146100c3578063481c6a75146100df57806363cf070c1461010a5780636fbcb6a214610113575b600080fd5b6100c16100bc366004610248565b610176565b005b6100cc60045481565b6040519081526020015b60405180910390f35b6001546100f2906001600160a01b031681565b6040516001600160a01b0390911681526020016100d6565b6100cc60055481565b6100cc60065481565b61012f61012a366004610260565b6101e5565b60405190151581526020016100d6565b6100cc60085481565b6000546100f2906001600160a01b031681565b6100cc60025481565b6100cc60035481565b6100cc60075481565b6001546001600160a01b031633146101e05760405162461bcd60e51b815260206004820152602360248201527f4f6e6c79206d616e616765722063616e2063616c6c20746869732066756e637460448201526234b7b760e91b606482015260840160405180910390fd5b600655565b6000806004546003546101f89190610299565b9050600060045460035461020c9190610281565b905080851115801561021e5750818510155b801561022b575060085484115b1561023b57600192505050610242565b6000925050505b92915050565b600060208284031215610259578081fd5b5035919050565b60008060408385031215610272578081fd5b50508035926020909101359150565b60008219821115610294576102946102b0565b500190565b6000828210156102ab576102ab6102b0565b500390565b634e487b7160e01b600052601160045260246000fdfea2646970667358221220b5f8e180457e4e292487e0cdb44056681347bd0afc52ca4be4f0b2aa98ccc71964736f6c63430008040033a26469706673582212209992ab0b8cd4c034bbf6291b0d37daf988d38b8b52fc46eb995b6fcd26c5af0b64736f6c63430008040033",
    "sourcePath": "/Users/dhutchings/Desktop/eth_price_bet/ethereum/contracts/BetContract.sol",
    "compiler": {
        "name": "solc",
        "version": "0.8.4+commit.c7e474f2"
    },
    "functionHashes": {
        "addressExists(address)": "a5025222",
        "addressToContracts(address,uint256)": "42ff1b29",
        "addressToPayout(address)": "3e1e5b0a",
        "calculatePayout(address,uint256[])": "2290757a",
        "createBetContract(uint256,uint256,uint256,uint256)": "6ec73b0f",
        "fetchContracts(address)": "bc70cea1",
        "fundBalance()": "3c067945",
        "payoutWinnings(address)": "dcedbdaa"
    },
    "gasEstimates": {
        "creation": {
            "codeDepositCost": "994600",
            "executionCost": "21869",
            "totalCost": "1016469"
        },
        "external": {
            "addressExists(address)": "1253",
            "addressToContracts(address,uint256)": "2251",
            "addressToPayout(address)": "1253",
            "calculatePayout(address,uint256[])": "infinite",
            "createBetContract(uint256,uint256,uint256,uint256)": "infinite",
            "fetchContracts(address)": "infinite",
            "fundBalance()": "119",
            "payoutWinnings(address)": "infinite"
        },
        "internal": {
            "removeContract(uint256,contract BetContract[] storage pointer)": "infinite"
        }
    }
}