{
    "contractName": "BetContract",
    "abi": [
        {
            "inputs": [
                {
                    "internalType": "address",
                    "name": "_bettor",
                    "type": "address"
                },
                {
                    "internalType": "address",
                    "name": "_manager",
                    "type": "address"
                },
                {
                    "internalType": "uint256",
                    "name": "_betAmount",
                    "type": "uint256"
                },
                {
                    "internalType": "uint256",
                    "name": "_targetGuess",
                    "type": "uint256"
                },
                {
                    "internalType": "uint256",
                    "name": "_marginOfError",
                    "type": "uint256"
                },
                {
                    "internalType": "uint256",
                    "name": "_numDays",
                    "type": "uint256"
                },
                {
                    "internalType": "uint256",
                    "name": "_startTimestamp",
                    "type": "uint256"
                }
            ],
            "stateMutability": "nonpayable",
            "type": "constructor"
        },
        {
            "inputs": [],
            "name": "betAmount",
            "outputs": [
                {
                    "internalType": "uint256",
                    "name": "",
                    "type": "uint256"
                }
            ],
            "stateMutability": "view",
            "type": "function"
        },
        {
            "inputs": [],
            "name": "bettor",
            "outputs": [
                {
                    "internalType": "address",
                    "name": "",
                    "type": "address"
                }
            ],
            "stateMutability": "view",
            "type": "function"
        },
        {
            "inputs": [
                {
                    "internalType": "uint256",
                    "name": "correctPrice",
                    "type": "uint256"
                },
                {
                    "internalType": "uint256",
                    "name": "currentTimestamp",
                    "type": "uint256"
                }
            ],
            "name": "didWin",
            "outputs": [
                {
                    "internalType": "bool",
                    "name": "",
                    "type": "bool"
                }
            ],
            "stateMutability": "view",
            "type": "function"
        },
        {
            "inputs": [],
            "name": "endTimestamp",
            "outputs": [
                {
                    "internalType": "uint256",
                    "name": "",
                    "type": "uint256"
                }
            ],
            "stateMutability": "view",
            "type": "function"
        },
        {
            "inputs": [],
            "name": "manager",
            "outputs": [
                {
                    "internalType": "address",
                    "name": "",
                    "type": "address"
                }
            ],
            "stateMutability": "view",
            "type": "function"
        },
        {
            "inputs": [],
            "name": "marginOfError",
            "outputs": [
                {
                    "internalType": "uint256",
                    "name": "",
                    "type": "uint256"
                }
            ],
            "stateMutability": "view",
            "type": "function"
        },
        {
            "inputs": [],
            "name": "numDays",
            "outputs": [
                {
                    "internalType": "uint256",
                    "name": "",
                    "type": "uint256"
                }
            ],
            "stateMutability": "view",
            "type": "function"
        },
        {
            "inputs": [],
            "name": "potentialReward",
            "outputs": [
                {
                    "internalType": "uint256",
                    "name": "",
                    "type": "uint256"
                }
            ],
            "stateMutability": "view",
            "type": "function"
        },
        {
            "inputs": [
                {
                    "internalType": "uint256",
                    "name": "payout",
                    "type": "uint256"
                }
            ],
            "name": "setPotentialReward",
            "outputs": [],
            "stateMutability": "nonpayable",
            "type": "function"
        },
        {
            "inputs": [],
            "name": "startTimestamp",
            "outputs": [
                {
                    "internalType": "uint256",
                    "name": "",
                    "type": "uint256"
                }
            ],
            "stateMutability": "view",
            "type": "function"
        },
        {
            "inputs": [],
            "name": "targetGuess",
            "outputs": [
                {
                    "internalType": "uint256",
                    "name": "",
                    "type": "uint256"
                }
            ],
            "stateMutability": "view",
            "type": "function"
        }
    ],
    "bytecode": "608060405234801561001057600080fd5b506040516104f03803806104f083398101604081905261002f916100f9565b600080546001600160a01b03199081166001600160a01b038a811691909117909255600180549091169188169190911790556002859055600384905560048390556005829055600781905560068590556100ae61009b836305265c006100be602090811b61024817901c565b826100d160201b61025b1790919060201c565b600855506101a795505050505050565b60006100ca8284610172565b9392505050565b60006100ca828461015a565b80516001600160a01b03811681146100f457600080fd5b919050565b600080600080600080600060e0888a031215610113578283fd5b61011c886100dd565b965061012a602089016100dd565b604089015160608a015160808b015160a08c015160c0909c01519a9d939c50919a90999198509650945092505050565b6000821982111561016d5761016d610191565b500190565b600081600019048311821515161561018c5761018c610191565b500290565b634e487b7160e01b600052601160045260246000fd5b61033a806101b66000396000f3fe608060405234801561001057600080fd5b50600436106100a95760003560e01c80639a6fb425116100715780639a6fb4251461011c578063a85adeab1461013f578063afe9d22f14610148578063d24257c01461015b578063dd8e494b14610164578063e6fd48bc1461016d57600080fd5b8063207872ae146100ae57806337688dc1146100c3578063481c6a75146100df57806363cf070c1461010a5780636fbcb6a214610113575b600080fd5b6100c16100bc366004610267565b610176565b005b6100cc60045481565b6040519081526020015b60405180910390f35b6001546100f2906001600160a01b031681565b6040516001600160a01b0390911681526020016100d6565b6100cc60055481565b6100cc60065481565b61012f61012a36600461027f565b6101e5565b60405190151581526020016100d6565b6100cc60085481565b6000546100f2906001600160a01b031681565b6100cc60025481565b6100cc60035481565b6100cc60075481565b6001546001600160a01b031633146101e05760405162461bcd60e51b815260206004820152602360248201527f4f6e6c79206d616e616765722063616e2063616c6c20746869732066756e637460448201526234b7b760e91b606482015260840160405180910390fd5b600655565b6000806004546003546101f891906102d7565b9050600060045460035461020c91906102a0565b905080851115801561021e5750818510155b801561022b575060085484115b1561023b57600192505050610242565b6000925050505b92915050565b600061025482846102b8565b9392505050565b600061025482846102a0565b600060208284031215610278578081fd5b5035919050565b60008060408385031215610291578081fd5b50508035926020909101359150565b600082198211156102b3576102b36102ee565b500190565b60008160001904831182151516156102d2576102d26102ee565b500290565b6000828210156102e9576102e96102ee565b500390565b634e487b7160e01b600052601160045260246000fdfea2646970667358221220e1b12808efcced0e7d377aec07db79339940667094a0f62a3ecf344a3606b6c464736f6c63430008040033",
    "sourcePath": "/Users/dhutchings/Documents/GitHub/Ethereum-Price-Betting/ethereum/contracts/BetContract.sol",
    "compiler": {
        "name": "solc",
        "version": "0.8.4+commit.c7e474f2"
    },
    "functionHashes": {
        "betAmount()": "d24257c0",
        "bettor()": "afe9d22f",
        "didWin(uint256,uint256)": "9a6fb425",
        "endTimestamp()": "a85adeab",
        "manager()": "481c6a75",
        "marginOfError()": "37688dc1",
        "numDays()": "63cf070c",
        "potentialReward()": "6fbcb6a2",
        "setPotentialReward(uint256)": "207872ae",
        "startTimestamp()": "e6fd48bc",
        "targetGuess()": "dd8e494b"
    },
    "gasEstimates": {
        "creation": {
            "codeDepositCost": "165200",
            "executionCost": "infinite",
            "totalCost": "infinite"
        },
        "external": {
            "betAmount()": "1050",
            "bettor()": "1084",
            "didWin(uint256,uint256)": "4602",
            "endTimestamp()": "1006",
            "manager()": "1085",
            "marginOfError()": "1007",
            "numDays()": "1051",
            "potentialReward()": "1073",
            "setPotentialReward(uint256)": "21065",
            "startTimestamp()": "1094",
            "targetGuess()": "1072"
        }
    }
}