{
    "contractName": "BetContract",
    "abi": [
        {
            "inputs": [
                {
                    "internalType": "address",
                    "name": "_bettor",
                    "type": "address"
                },
                {
                    "internalType": "address",
                    "name": "_manager",
                    "type": "address"
                },
                {
                    "internalType": "uint256",
                    "name": "_betAmount",
                    "type": "uint256"
                },
                {
                    "internalType": "uint256",
                    "name": "_targetGuess",
                    "type": "uint256"
                },
                {
                    "internalType": "uint256",
                    "name": "_marginOfError",
                    "type": "uint256"
                },
                {
                    "internalType": "uint256",
                    "name": "_numDays",
                    "type": "uint256"
                },
                {
                    "internalType": "uint256",
                    "name": "_startTimestamp",
                    "type": "uint256"
                },
                {
                    "internalType": "uint256",
                    "name": "_endTimestamp",
                    "type": "uint256"
                }
            ],
            "stateMutability": "nonpayable",
            "type": "constructor"
        },
        {
            "inputs": [],
            "name": "betAmount",
            "outputs": [
                {
                    "internalType": "uint256",
                    "name": "",
                    "type": "uint256"
                }
            ],
            "stateMutability": "view",
            "type": "function"
        },
        {
            "inputs": [],
            "name": "bettor",
            "outputs": [
                {
                    "internalType": "address",
                    "name": "",
                    "type": "address"
                }
            ],
            "stateMutability": "view",
            "type": "function"
        },
        {
            "inputs": [
                {
                    "internalType": "uint256",
                    "name": "correctPrice",
                    "type": "uint256"
                },
                {
                    "internalType": "uint256",
                    "name": "currentTimestamp",
                    "type": "uint256"
                }
            ],
            "name": "didWin",
            "outputs": [
                {
                    "internalType": "bool",
                    "name": "",
                    "type": "bool"
                }
            ],
            "stateMutability": "view",
            "type": "function"
        },
        {
            "inputs": [],
            "name": "endTimestamp",
            "outputs": [
                {
                    "internalType": "uint256",
                    "name": "",
                    "type": "uint256"
                }
            ],
            "stateMutability": "view",
            "type": "function"
        },
        {
            "inputs": [],
            "name": "manager",
            "outputs": [
                {
                    "internalType": "address",
                    "name": "",
                    "type": "address"
                }
            ],
            "stateMutability": "view",
            "type": "function"
        },
        {
            "inputs": [],
            "name": "marginOfError",
            "outputs": [
                {
                    "internalType": "uint256",
                    "name": "",
                    "type": "uint256"
                }
            ],
            "stateMutability": "view",
            "type": "function"
        },
        {
            "inputs": [],
            "name": "numDays",
            "outputs": [
                {
                    "internalType": "uint256",
                    "name": "",
                    "type": "uint256"
                }
            ],
            "stateMutability": "view",
            "type": "function"
        },
        {
            "inputs": [],
            "name": "potentialReward",
            "outputs": [
                {
                    "internalType": "uint256",
                    "name": "",
                    "type": "uint256"
                }
            ],
            "stateMutability": "view",
            "type": "function"
        },
        {
            "inputs": [
                {
                    "internalType": "uint256",
                    "name": "payout",
                    "type": "uint256"
                }
            ],
            "name": "setPotentialReward",
            "outputs": [],
            "stateMutability": "nonpayable",
            "type": "function"
        },
        {
            "inputs": [],
            "name": "startTimestamp",
            "outputs": [
                {
                    "internalType": "uint256",
                    "name": "",
                    "type": "uint256"
                }
            ],
            "stateMutability": "view",
            "type": "function"
        },
        {
            "inputs": [],
            "name": "targetGuess",
            "outputs": [
                {
                    "internalType": "uint256",
                    "name": "",
                    "type": "uint256"
                }
            ],
            "stateMutability": "view",
            "type": "function"
        }
    ],
    "bytecode": "608060405234801561001057600080fd5b5060405161041338038061041383398101604081905261002f9161009d565b600080546001600160a01b03998a166001600160a01b03199182161790915560018054989099169716969096179096556002849055600392909255600455600555600792909255600855600655610108565b80516001600160a01b038116811461009857600080fd5b919050565b600080600080600080600080610100898b0312156100b9578384fd5b6100c289610081565b97506100d060208a01610081565b60408a015160608b015160808c015160a08d015160c08e015160e0909e01519c9f949e50929c919b909a509198509650945092505050565b6102fc806101176000396000f3fe608060405234801561001057600080fd5b50600436106100a95760003560e01c80639a6fb425116100715780639a6fb4251461011c578063a85adeab1461013f578063afe9d22f14610148578063d24257c01461015b578063dd8e494b14610164578063e6fd48bc1461016d57600080fd5b8063207872ae146100ae57806337688dc1146100c3578063481c6a75146100df57806363cf070c1461010a5780636fbcb6a214610113575b600080fd5b6100c16100bc366004610248565b610176565b005b6100cc60045481565b6040519081526020015b60405180910390f35b6001546100f2906001600160a01b031681565b6040516001600160a01b0390911681526020016100d6565b6100cc60055481565b6100cc60065481565b61012f61012a366004610260565b6101e5565b60405190151581526020016100d6565b6100cc60085481565b6000546100f2906001600160a01b031681565b6100cc60025481565b6100cc60035481565b6100cc60075481565b6001546001600160a01b031633146101e05760405162461bcd60e51b815260206004820152602360248201527f4f6e6c79206d616e616765722063616e2063616c6c20746869732066756e637460448201526234b7b760e91b606482015260840160405180910390fd5b600655565b6000806004546003546101f89190610299565b9050600060045460035461020c9190610281565b905080851115801561021e5750818510155b801561022b575060085484115b1561023b57600192505050610242565b6000925050505b92915050565b600060208284031215610259578081fd5b5035919050565b60008060408385031215610272578081fd5b50508035926020909101359150565b60008219821115610294576102946102b0565b500190565b6000828210156102ab576102ab6102b0565b500390565b634e487b7160e01b600052601160045260246000fdfea2646970667358221220b5f8e180457e4e292487e0cdb44056681347bd0afc52ca4be4f0b2aa98ccc71964736f6c63430008040033",
    "sourcePath": "/Users/dhutchings/Desktop/eth_price_bet/ethereum/contracts/BetContract.sol",
    "compiler": {
        "name": "solc",
        "version": "0.8.4+commit.c7e474f2"
    },
    "functionHashes": {
        "betAmount()": "d24257c0",
        "bettor()": "afe9d22f",
        "didWin(uint256,uint256)": "9a6fb425",
        "endTimestamp()": "a85adeab",
        "manager()": "481c6a75",
        "marginOfError()": "37688dc1",
        "numDays()": "63cf070c",
        "potentialReward()": "6fbcb6a2",
        "setPotentialReward(uint256)": "207872ae",
        "startTimestamp()": "e6fd48bc",
        "targetGuess()": "dd8e494b"
    },
    "gasEstimates": {
        "creation": {
            "codeDepositCost": "152800",
            "executionCost": "infinite",
            "totalCost": "infinite"
        },
        "external": {
            "betAmount()": "1050",
            "bettor()": "1084",
            "didWin(uint256,uint256)": "4602",
            "endTimestamp()": "1006",
            "manager()": "1085",
            "marginOfError()": "1007",
            "numDays()": "1051",
            "potentialReward()": "1073",
            "setPotentialReward(uint256)": "21065",
            "startTimestamp()": "1094",
            "targetGuess()": "1072"
        }
    }
}