{
    "contractName": "BetContractFactory",
    "abi": [
        {
            "inputs": [],
            "stateMutability": "nonpayable",
            "type": "constructor"
        },
        {
            "anonymous": false,
            "inputs": [
                {
                    "indexed": false,
                    "internalType": "address",
                    "name": "creator",
                    "type": "address"
                }
            ],
            "name": "NewContract",
            "type": "event"
        },
        {
            "anonymous": false,
            "inputs": [
                {
                    "indexed": false,
                    "internalType": "address",
                    "name": "recipient",
                    "type": "address"
                }
            ],
            "name": "PayoutWinnings",
            "type": "event"
        },
        {
            "inputs": [
                {
                    "internalType": "address",
                    "name": "",
                    "type": "address"
                }
            ],
            "name": "addressExists",
            "outputs": [
                {
                    "internalType": "bool",
                    "name": "",
                    "type": "bool"
                }
            ],
            "stateMutability": "view",
            "type": "function"
        },
        {
            "inputs": [
                {
                    "internalType": "address",
                    "name": "",
                    "type": "address"
                },
                {
                    "internalType": "uint256",
                    "name": "",
                    "type": "uint256"
                }
            ],
            "name": "addressToContracts",
            "outputs": [
                {
                    "internalType": "contract BetContract",
                    "name": "",
                    "type": "address"
                }
            ],
            "stateMutability": "view",
            "type": "function"
        },
        {
            "inputs": [
                {
                    "internalType": "address",
                    "name": "",
                    "type": "address"
                }
            ],
            "name": "addressToPayout",
            "outputs": [
                {
                    "internalType": "uint256",
                    "name": "",
                    "type": "uint256"
                }
            ],
            "stateMutability": "view",
            "type": "function"
        },
        {
            "inputs": [
                {
                    "internalType": "address",
                    "name": "bettor",
                    "type": "address"
                },
                {
                    "internalType": "uint256[]",
                    "name": "correctPrices",
                    "type": "uint256[]"
                }
            ],
            "name": "calculatePayout",
            "outputs": [],
            "stateMutability": "nonpayable",
            "type": "function"
        },
        {
            "inputs": [
                {
                    "internalType": "uint256",
                    "name": "targetGuess",
                    "type": "uint256"
                },
                {
                    "internalType": "uint256",
                    "name": "marginOfError",
                    "type": "uint256"
                },
                {
                    "internalType": "uint256",
                    "name": "numDays",
                    "type": "uint256"
                },
                {
                    "internalType": "uint256",
                    "name": "startTimestamp",
                    "type": "uint256"
                }
            ],
            "name": "createBetContract",
            "outputs": [],
            "stateMutability": "payable",
            "type": "function"
        },
        {
            "inputs": [
                {
                    "internalType": "address",
                    "name": "bettor",
                    "type": "address"
                }
            ],
            "name": "fetchBetContracts",
            "outputs": [
                {
                    "internalType": "contract BetContract[]",
                    "name": "",
                    "type": "address[]"
                }
            ],
            "stateMutability": "view",
            "type": "function"
        },
        {
            "inputs": [],
            "name": "fundBalance",
            "outputs": [],
            "stateMutability": "payable",
            "type": "function"
        },
        {
            "inputs": [
                {
                    "internalType": "address",
                    "name": "recipient",
                    "type": "address"
                }
            ],
            "name": "payoutWinnings",
            "outputs": [],
            "stateMutability": "nonpayable",
            "type": "function"
        }
    ],
    "bytecode": "608060405234801561001057600080fd5b50600080546001600160a01b0319163317905561143a806100326000396000f3fe608060405260043610620000855760003560e01c80636ec73b0f11620000545780636ec73b0f1462000133578063a5025222146200014a578063d29fb834146200018f578063dcedbdaa14620001c357600080fd5b80632290757a146200008a5780633c06794514620000af5780633e1e5b0a14620000b157806342ff1b2914620000f5575b600080fd5b3480156200009757600080fd5b50620000af620000a936600462000c89565b620001e8565b005b348015620000be57600080fd5b50620000e2620000d036600462000c6c565b60036020526000908152604090205481565b6040519081526020015b60405180910390f35b3480156200010257600080fd5b506200011a6200011436600462000d6a565b62000544565b6040516001600160a01b039091168152602001620000ec565b620000af6200014436600462000dd1565b6200057d565b3480156200015757600080fd5b506200017e6200016936600462000c6c565b60026020526000908152604090205460ff1681565b6040519015158152602001620000ec565b3480156200019c57600080fd5b50620001b4620001ae36600462000c6c565b62000941565b604051620000ec919062000e03565b348015620001d057600080fd5b50620000af620001e236600462000c6c565b620009b9565b6000546001600160a01b031633146200020057600080fd5b6001600160a01b0382166000908152600160205260408120905b81548110156200053e5760008282815481106200024757634e487b7160e01b600052603260045260246000fd5b6000918252602080832090910154604080516337de5b5160e11b815290516001600160a01b0390921694508492636fbcb6a292600480840193829003018186803b1580156200029557600080fd5b505afa158015620002aa573d6000803e3d6000fd5b505050506040513d601f19601f82011682018060405250810190620002d0919062000db8565b11620003345760405162461bcd60e51b815260206004820152602860248201527f506f74656e7469616c20726577617264206d75737420626520677265617465726044820152670207468616e2024360c41b60648201526084015b60405180910390fd5b6000429050816001600160a01b0316639a6fb4258685815181106200036957634e487b7160e01b600052603260045260246000fd5b6020026020010151836040518363ffffffff1660e01b815260040162000399929190918252602082015260400190565b60206040518083038186803b158015620003b257600080fd5b505afa158015620003c7573d6000803e3d6000fd5b505050506040513d601f19601f82011682018060405250810190620003ed919062000d96565b1515600114156200049d57816001600160a01b0316636fbcb6a26040518163ffffffff1660e01b815260040160206040518083038186803b1580156200043257600080fd5b505afa15801562000447573d6000803e3d6000fd5b505050506040513d601f19601f820116820180604052508101906200046d919062000db8565b6001600160a01b038716600090815260036020526040812080549091906200049790849062000e52565b90915550505b816001600160a01b031663a85adeab6040518163ffffffff1660e01b815260040160206040518083038186803b158015620004d757600080fd5b505afa158015620004ec573d6000803e3d6000fd5b505050506040513d601f19601f8201168201806040525081019062000512919062000db8565b811115620005265762000526838562000a65565b50508080620005359062000eca565b9150506200021a565b50505050565b600160205281600052604060002081815481106200056157600080fd5b6000918252602090912001546001600160a01b03169150829050565b60003411620005e65760405162461bcd60e51b815260206004820152602e60248201527f4e65656420746f20636f6e7472696275746520657468657220696e206f72646560448201526d1c881d1bc81c1b1858d94818995d60921b60648201526084016200032b565b620005f360054762000e6d565b34106200065b5760405162461bcd60e51b815260206004820152602f60248201527f43616e277420626574206d6f7265207468616e20323025206f6620746865207660448201526e185b1d59481bd9881d1a19481c1bdd608a1b60648201526084016200032b565b6001821015620006ca5760405162461bcd60e51b815260206004820152603360248201527f426574206e6565647320746f20626520706c61636564206174206c6561737420604482015272312064617920696e207468652066757475726560681b60648201526084016200032b565b60328311156200072b5760405162461bcd60e51b815260206004820152602560248201527f4d617267696e206f66206572726f72206d757374206265206c6573732074686160448201526406e202435360dc1b60648201526084016200032b565b620493e062000757826200075061138862000749426103e862000b8f565b9062000ba4565b9062000bb2565b10620007d85760405162461bcd60e51b815260206004820152604360248201527f5374617274696e672074696d657374616d70206d757374206265206c6573732060448201527f7468616e2035206d696e757465732066726f6d20626c6f636b2074696d6573746064820152620616d760ec1b608482015260a4016200032b565b60003360008054906101000a90046001600160a01b03163487878787604051620008029062000bc0565b6001600160a01b03978816815296909516602087015260408601939093526060850191909152608084015260a083015260c082015260e001604051809103906000f08015801562000857573d6000803e3d6000fd5b503360009081526002602052604090205490915060ff16151560011415620008b65733600090815260016020818152604083208054928301815583529091200180546001600160a01b0319166001600160a01b03831617905562000907565b60408051602080820183526001600160a01b038416825233600090815260019182905292909220620008eb9290919062000bce565b50336000908152600260205260409020805460ff191660011790555b6040513381527f387ea218537e939551af33bbc2dd6c53b1fee55d377a0dce288258f972cb3a9c9060200160405180910390a15050505050565b6001600160a01b038116600090815260016020908152604091829020805483518184028101840190945280845260609392830182828015620009ad57602002820191906000526020600020905b81546001600160a01b031681526001909101906020018083116200098e575b50505050509050919050565b6000546001600160a01b03163314620009d157600080fd5b6001600160a01b03811660008181526003602052604080822054905181156108fc0292818181858888f1935050505015801562000a12573d6000803e3d6000fd5b506001600160a01b03811660008181526003602090815260408083209290925590519182527ff3a3df5c689ad8a14d0800ea098ea46d0443cc799837e53a9c0c9a68ab07f3a4910160405180910390a150565b8054821062000aac5760405162461bcd60e51b8152602060048201526012602482015271496e646578206f7574206f662072616e676560701b60448201526064016200032b565b8054819062000abe9060019062000eb0565b8154811062000add57634e487b7160e01b600052603260045260246000fd5b9060005260206000200160009054906101000a90046001600160a01b031681838154811062000b1c57634e487b7160e01b600052603260045260246000fd5b9060005260206000200160006101000a8154816001600160a01b0302191690836001600160a01b031602179055508080548062000b6957634e487b7160e01b600052603160045260246000fd5b600082815260209020810160001990810180546001600160a01b03191690550190555050565b600062000b9d828462000e8e565b9392505050565b600062000b9d828462000e52565b600062000b9d828462000eb0565b6104f08062000f1583390190565b82805482825590600052602060002090810192821562000c26579160200282015b8281111562000c2657825182546001600160a01b0319166001600160a01b0390911617825560209092019160019091019062000bef565b5062000c3492915062000c38565b5090565b5b8082111562000c34576000815560010162000c39565b80356001600160a01b038116811462000c6757600080fd5b919050565b60006020828403121562000c7e578081fd5b62000b9d8262000c4f565b6000806040838503121562000c9c578081fd5b62000ca78362000c4f565b915060208084013567ffffffffffffffff8082111562000cc5578384fd5b818601915086601f83011262000cd9578384fd5b81358181111562000cee5762000cee62000efe565b8060051b604051601f19603f8301168101818110858211171562000d165762000d1662000efe565b604052828152858101935084860182860187018b101562000d35578788fd5b8795505b8386101562000d5957803585526001959095019493860193860162000d39565b508096505050505050509250929050565b6000806040838503121562000d7d578182fd5b62000d888362000c4f565b946020939093013593505050565b60006020828403121562000da8578081fd5b8151801515811462000b9d578182fd5b60006020828403121562000dca578081fd5b5051919050565b6000806000806080858703121562000de7578182fd5b5050823594602084013594506040840135936060013592509050565b6020808252825182820181905260009190848201906040850190845b8181101562000e465783516001600160a01b03168352928401929184019160010162000e1f565b50909695505050505050565b6000821982111562000e685762000e6862000ee8565b500190565b60008262000e8957634e487b7160e01b81526012600452602481fd5b500490565b600081600019048311821515161562000eab5762000eab62000ee8565b500290565b60008282101562000ec55762000ec562000ee8565b500390565b600060001982141562000ee15762000ee162000ee8565b5060010190565b634e487b7160e01b600052601160045260246000fd5b634e487b7160e01b600052604160045260246000fdfe608060405234801561001057600080fd5b506040516104f03803806104f083398101604081905261002f916100f9565b600080546001600160a01b03199081166001600160a01b038a811691909117909255600180549091169188169190911790556002859055600384905560048390556005829055600781905560068590556100ae61009b836305265c006100be602090811b61024817901c565b826100d160201b61025b1790919060201c565b600855506101a795505050505050565b60006100ca8284610172565b9392505050565b60006100ca828461015a565b80516001600160a01b03811681146100f457600080fd5b919050565b600080600080600080600060e0888a031215610113578283fd5b61011c886100dd565b965061012a602089016100dd565b604089015160608a015160808b015160a08c015160c0909c01519a9d939c50919a90999198509650945092505050565b6000821982111561016d5761016d610191565b500190565b600081600019048311821515161561018c5761018c610191565b500290565b634e487b7160e01b600052601160045260246000fd5b61033a806101b66000396000f3fe608060405234801561001057600080fd5b50600436106100a95760003560e01c80639a6fb425116100715780639a6fb4251461011c578063a85adeab1461013f578063afe9d22f14610148578063d24257c01461015b578063dd8e494b14610164578063e6fd48bc1461016d57600080fd5b8063207872ae146100ae57806337688dc1146100c3578063481c6a75146100df57806363cf070c1461010a5780636fbcb6a214610113575b600080fd5b6100c16100bc366004610267565b610176565b005b6100cc60045481565b6040519081526020015b60405180910390f35b6001546100f2906001600160a01b031681565b6040516001600160a01b0390911681526020016100d6565b6100cc60055481565b6100cc60065481565b61012f61012a36600461027f565b6101e5565b60405190151581526020016100d6565b6100cc60085481565b6000546100f2906001600160a01b031681565b6100cc60025481565b6100cc60035481565b6100cc60075481565b6001546001600160a01b031633146101e05760405162461bcd60e51b815260206004820152602360248201527f4f6e6c79206d616e616765722063616e2063616c6c20746869732066756e637460448201526234b7b760e91b606482015260840160405180910390fd5b600655565b6000806004546003546101f891906102d7565b9050600060045460035461020c91906102a0565b905080851115801561021e5750818510155b801561022b575060085484115b1561023b57600192505050610242565b6000925050505b92915050565b600061025482846102b8565b9392505050565b600061025482846102a0565b600060208284031215610278578081fd5b5035919050565b60008060408385031215610291578081fd5b50508035926020909101359150565b600082198211156102b3576102b36102ee565b500190565b60008160001904831182151516156102d2576102d26102ee565b500290565b6000828210156102e9576102e96102ee565b500390565b634e487b7160e01b600052601160045260246000fdfea2646970667358221220cdc36463b77af2b103f94d1753a5731d904ccbe50322a97ed16e53f9850e27b164736f6c63430008040033a264697066735822122019c4cba9bbb00a7fdd812351838c72ad2ff6f8212d05e74736caf322b209994864736f6c63430008040033",
    "sourcePath": "/Users/dhutchings/Documents/GitHub/Ethereum-Price-Betting/ethereum/contracts/BetContract.sol",
    "compiler": {
        "name": "solc",
        "version": "0.8.4+commit.c7e474f2"
    },
    "functionHashes": {
        "addressExists(address)": "a5025222",
        "addressToContracts(address,uint256)": "42ff1b29",
        "addressToPayout(address)": "3e1e5b0a",
        "calculatePayout(address,uint256[])": "2290757a",
        "createBetContract(uint256,uint256,uint256,uint256)": "6ec73b0f",
        "fetchBetContracts(address)": "d29fb834",
        "fundBalance()": "3c067945",
        "payoutWinnings(address)": "dcedbdaa"
    },
    "gasEstimates": {
        "creation": {
            "codeDepositCost": "1035600",
            "executionCost": "21909",
            "totalCost": "1057509"
        },
        "external": {
            "addressExists(address)": "1253",
            "addressToContracts(address,uint256)": "2251",
            "addressToPayout(address)": "1253",
            "calculatePayout(address,uint256[])": "infinite",
            "createBetContract(uint256,uint256,uint256,uint256)": "infinite",
            "fetchBetContracts(address)": "infinite",
            "fundBalance()": "119",
            "payoutWinnings(address)": "infinite"
        },
        "internal": {
            "removeContract(uint256,contract BetContract[] storage pointer)": "infinite"
        }
    }
}